{
  "address": "0x86b7d020C96676D3134931a69bC7df0675f45B1c",
  "abi": [
    {
      "inputs": [
        {
          "internalType": "bytes",
          "name": "unencoded",
          "type": "bytes"
        }
      ],
      "name": "base64Encode",
      "outputs": [
        {
          "internalType": "string",
          "name": "",
          "type": "string"
        }
      ],
      "stateMutability": "pure",
      "type": "function"
    },
    {
      "inputs": [
        {
          "internalType": "string",
          "name": "name",
          "type": "string"
        },
        {
          "internalType": "string",
          "name": "description",
          "type": "string"
        },
        {
          "internalType": "string",
          "name": "imageUrl",
          "type": "string"
        },
        {
          "internalType": "string",
          "name": "animationUrl",
          "type": "string"
        },
        {
          "internalType": "uint256",
          "name": "tokenOfEdition",
          "type": "uint256"
        },
        {
          "internalType": "uint256",
          "name": "editionSize",
          "type": "uint256"
        }
      ],
      "name": "createMetadataEdition",
      "outputs": [
        {
          "internalType": "string",
          "name": "",
          "type": "string"
        }
      ],
      "stateMutability": "pure",
      "type": "function"
    },
    {
      "inputs": [
        {
          "internalType": "string",
          "name": "name",
          "type": "string"
        },
        {
          "internalType": "string",
          "name": "description",
          "type": "string"
        },
        {
          "internalType": "string",
          "name": "mediaData",
          "type": "string"
        },
        {
          "internalType": "uint256",
          "name": "tokenOfEdition",
          "type": "uint256"
        },
        {
          "internalType": "uint256",
          "name": "editionSize",
          "type": "uint256"
        }
      ],
      "name": "createMetadataJSON",
      "outputs": [
        {
          "internalType": "bytes",
          "name": "",
          "type": "bytes"
        }
      ],
      "stateMutability": "pure",
      "type": "function"
    },
    {
      "inputs": [
        {
          "internalType": "bytes",
          "name": "json",
          "type": "bytes"
        }
      ],
      "name": "encodeMetadataJSON",
      "outputs": [
        {
          "internalType": "string",
          "name": "",
          "type": "string"
        }
      ],
      "stateMutability": "pure",
      "type": "function"
    },
    {
      "inputs": [
        {
          "internalType": "uint256",
          "name": "value",
          "type": "uint256"
        }
      ],
      "name": "numberToString",
      "outputs": [
        {
          "internalType": "string",
          "name": "",
          "type": "string"
        }
      ],
      "stateMutability": "pure",
      "type": "function"
    },
    {
      "inputs": [
        {
          "internalType": "string",
          "name": "imageUrl",
          "type": "string"
        },
        {
          "internalType": "string",
          "name": "animationUrl",
          "type": "string"
        },
        {
          "internalType": "uint256",
          "name": "tokenOfEdition",
          "type": "uint256"
        }
      ],
      "name": "tokenMediaData",
      "outputs": [
        {
          "internalType": "string",
          "name": "",
          "type": "string"
        }
      ],
      "stateMutability": "pure",
      "type": "function"
    }
  ],
  "transactionHash": "0xbc12882806abd6f73929f17e4189ad68b80bbf79ac22ee91bba1285ace2669b3",
  "args": [],
  "solcInputHash": "e383a659b6dac4e6ae6a6fc1c94b1ed2",
  "bytecode": "0x608060405234801561001057600080fd5b50610cd7806100206000396000f3fe608060405234801561001057600080fd5b50600436106100625760003560e01c8063170dc6601461006757806358464f3014610090578063d01fde8c146100a3578063d5fb1b19146100b6578063df30dba0146100c9578063eb111ab6146100dc575b600080fd5b61007a6100753660046107b3565b6100ef565b6040516100879190610b35565b60405180910390f35b61007a61009e3660046106ae565b610100565b61007a6100b13660046105a8565b61017c565b61007a6100c43660046105a8565b6101ad565b61007a6100d73660046105f0565b6101b8565b61007a6100ea366004610747565b6101f0565b60606100fa826102a9565b92915050565b606080821561013457610112836100ef565b6040516020016101229190610a9e565b60405160208183030381529060405290505b8661013e856100ef565b82888861014a896100ef565b8c6040516020016101619796959493929190610935565b60405160208183030381529060405291505095945050505050565b6060610187826101ad565b6040516020016101979190610a59565b6040516020818303038152906040529050919050565b60606100fa826103ae565b606060006101c78686866101f0565b905060006101d88989848888610100565b90506101e38161017c565b9998505050505050505050565b825182516060911580159115159082906102075750805b1561024b5785610216856100ef565b86610220876100ef565b604051602001610233949392919061087a565b604051602081830303815290604052925050506102a2565b811561026c578561025b856100ef565b604051602001610233929190610814565b801561028d578461027c856100ef565b604051602001610233929190610ac7565b60405180602001604052806000815250925050505b9392505050565b6060816102cd5750506040805180820190915260018152600360fc1b602082015290565b8160005b81156102f757806102e181610bda565b91506102f09050600a83610b60565b91506102d1565b6000816001600160401b0381111561031157610311610c4b565b6040519080825280601f01601f19166020018201604052801561033b576020820181803683370190505b5090505b84156103a657610350600183610b93565b915061035d600a86610bf5565b610368906030610b48565b60f81b81838151811061037d5761037d610c35565b60200101906001600160f81b031916908160001a90535061039f600a86610b60565b945061033f565b949350505050565b60608151600014156103ce57505060408051602081019091526000815290565b6000604051806060016040528060408152602001610c6260409139905060006003845160026103fd9190610b48565b6104079190610b60565b610412906004610b74565b90506000610421826020610b48565b6001600160401b0381111561043857610438610c4b565b6040519080825280601f01601f191660200182016040528015610462576020820181803683370190505b509050818152600183018586518101602084015b818310156104ce576003830192508251603f8160121c168501518253600182019150603f81600c1c168501518253600182019150603f8160061c168501518253600182019150603f8116850151825350600101610476565b6003895106600181146104e857600281146104f957610505565b613d3d60f01b600119830152610505565b603d60f81b6000198301525b509398975050505050505050565b60006001600160401b038084111561052d5761052d610c4b565b604051601f8501601f19908116603f0116810190828211818310171561055557610555610c4b565b8160405280935085815286868601111561056e57600080fd5b858560208301376000602087830101525050509392505050565b600082601f83011261059957600080fd5b6102a283833560208501610513565b6000602082840312156105ba57600080fd5b81356001600160401b038111156105d057600080fd5b8201601f810184136105e157600080fd5b6103a684823560208401610513565b60008060008060008060c0878903121561060957600080fd5b86356001600160401b038082111561062057600080fd5b61062c8a838b01610588565b9750602089013591508082111561064257600080fd5b61064e8a838b01610588565b9650604089013591508082111561066457600080fd5b6106708a838b01610588565b9550606089013591508082111561068657600080fd5b5061069389828a01610588565b9350506080870135915060a087013590509295509295509295565b600080600080600060a086880312156106c657600080fd5b85356001600160401b03808211156106dd57600080fd5b6106e989838a01610588565b965060208801359150808211156106ff57600080fd5b61070b89838a01610588565b9550604088013591508082111561072157600080fd5b5061072e88828901610588565b9598949750949560608101359550608001359392505050565b60008060006060848603121561075c57600080fd5b83356001600160401b038082111561077357600080fd5b61077f87838801610588565b9450602086013591508082111561079557600080fd5b506107a286828701610588565b925050604084013590509250925092565b6000602082840312156107c557600080fd5b5035919050565b600081518084526107e4816020860160208601610baa565b601f01601f19169290920160200192915050565b6000815161080a818560208601610baa565b9290920192915050565b6834b6b0b3b2911d101160b91b81528251600090610839816009850160208801610baa565b633f69643d60e01b600991840191820152835161085d81600d840160208801610baa565b631116101160e11b600d9290910191820152601101949350505050565b6834b6b0b3b2911d101160b91b8152845160009061089f816009850160208a01610baa565b8083019050633f69643d60e01b80600983015286516108c581600d850160208b01610baa565b741116101130b734b6b0ba34b7b72fbab936111d101160591b600d939091019283015285516108fb816022850160208a01610baa565b60229201918201528351610916816026840160208801610baa565b631116101160e11b60269290910191820152602a019695505050505050565b693d913730b6b2911d101160b11b8152875160009061095b81600a850160208d01610baa565b600160fd1b600a91840191820152885161097c81600b840160208d01610baa565b885191019061099281600b840160208c01610baa565b631116101160e11b600b929091019182018190526e3232b9b1b934b83a34b7b7111d101160891b600f83015287516109d181601e850160208c01610baa565b601e920191820152610a4b610a3c610a36610a1f610a196109f5602287018c6107f8565b770383937b832b93a34b2b9911d103d91373ab6b132b9111d160451b815260180190565b896107f8565b6a1610113730b6b2911d101160a91b8152600b0190565b866107f8565b62227d7d60e81b815260030190565b9a9950505050505050505050565b7f646174613a6170706c69636174696f6e2f6a736f6e3b6261736536342c000000815260008251610a9181601d850160208701610baa565b91909101601d0192915050565b602f60f81b815260008251610aba816001850160208701610baa565b9190910160010192915050565b7030b734b6b0ba34b7b72fbab936111d101160791b81528251600090610af4816011850160208801610baa565b633f69643d60e01b6011918401918201528351610b18816015840160208801610baa565b631116101160e11b60159290910191820152601901949350505050565b6020815260006102a260208301846107cc565b60008219821115610b5b57610b5b610c09565b500190565b600082610b6f57610b6f610c1f565b500490565b6000816000190483118215151615610b8e57610b8e610c09565b500290565b600082821015610ba557610ba5610c09565b500390565b60005b83811015610bc5578181015183820152602001610bad565b83811115610bd4576000848401525b50505050565b6000600019821415610bee57610bee610c09565b5060010190565b600082610c0457610c04610c1f565b500690565b634e487b7160e01b600052601160045260246000fd5b634e487b7160e01b600052601260045260246000fd5b634e487b7160e01b600052603260045260246000fd5b634e487b7160e01b600052604160045260246000fdfe4142434445464748494a4b4c4d4e4f505152535455565758595a6162636465666768696a6b6c6d6e6f707172737475767778797a303132333435363738392b2fa26469706673582212209d85c956067cd43991c917166bc2904a17b8ae29c3e156350e6d8747692815fc64736f6c63430008060033",
  "devdoc": {
    "details": "Can safely be used for generic base64Encode and numberToString functions",
    "kind": "dev",
    "methods": {
      "base64Encode(bytes)": {
        "params": {
          "unencoded": "bytes to base64-encode"
        }
      },
      "createMetadataEdition(string,string,string,string,uint256,uint256)": {
        "params": {
          "animationUrl": "URL of animation to render for edition",
          "description": "Description of NFT in metadata",
          "editionSize": "Size of entire edition to show",
          "imageUrl": "URL of image to render for edition",
          "name": "Name of NFT in metadata",
          "tokenOfEdition": "Token ID for specific token"
        }
      },
      "createMetadataJSON(string,string,string,uint256,uint256)": {
        "params": {
          "description": "Description of NFT in metadata",
          "editionSize": "Size of entire edition to show",
          "mediaData": "Data for media to include in json object",
          "name": "Name of NFT in metadata",
          "tokenOfEdition": "Token ID for specific token"
        }
      },
      "encodeMetadataJSON(bytes)": {
        "params": {
          "json": "Raw json to base64 and turn into a data-uri"
        }
      },
      "numberToString(uint256)": {
        "params": {
          "value": "number to return as a string"
        }
      },
      "tokenMediaData(string,string,uint256)": {
        "params": {
          "animationUrl": "URL of animation to render for edition",
          "imageUrl": "URL of image to render for edition"
        }
      }
    },
    "version": 1
  },
  "userdoc": {
    "kind": "user",
    "methods": {
      "createMetadataEdition(string,string,string,string,uint256,uint256)": {
        "notice": "Generate edition metadata from storage information as base64-json blob Combines the media data and metadata"
      },
      "createMetadataJSON(string,string,string,uint256,uint256)": {
        "notice": "Function to create the metadata json string for the nft edition"
      },
      "encodeMetadataJSON(bytes)": {
        "notice": "Encodes the argument json bytes into base64-data uri format"
      },
      "numberToString(uint256)": {
        "notice": "Proxy to openzeppelin's toString function"
      },
      "tokenMediaData(string,string,uint256)": {
        "notice": "Generates edition metadata from storage information as base64-json blob Combines the media data and metadata"
      }
    },
    "notice": "Shared NFT logic for rendering metadata associated with editions",
    "version": 1
  },
  "storageLayout": {
    "storage": [],
    "types": null
  }
}