{
  "address": "0x9692a6E918B8B87F4a533697E40F765e148fF334",
  "abi": [
    {
      "inputs": [
        {
          "internalType": "address",
          "name": "_implementation",
          "type": "address"
        }
      ],
      "stateMutability": "nonpayable",
      "type": "constructor"
    },
    {
      "anonymous": false,
      "inputs": [
        {
          "indexed": true,
          "internalType": "uint256",
          "name": "editionId",
          "type": "uint256"
        },
        {
          "indexed": true,
          "internalType": "address",
          "name": "creator",
          "type": "address"
        },
        {
          "indexed": false,
          "internalType": "uint256",
          "name": "editionSize",
          "type": "uint256"
        },
        {
          "indexed": false,
          "internalType": "address",
          "name": "editionContractAddress",
          "type": "address"
        }
      ],
      "name": "CreatedEdition",
      "type": "event"
    },
    {
      "inputs": [
        {
          "internalType": "address",
          "name": "_artist",
          "type": "address"
        },
        {
          "internalType": "string",
          "name": "_name",
          "type": "string"
        },
        {
          "internalType": "string",
          "name": "_symbol",
          "type": "string"
        },
        {
          "internalType": "string",
          "name": "_description",
          "type": "string"
        },
        {
          "internalType": "string",
          "name": "_animationUrl",
          "type": "string"
        },
        {
          "internalType": "bytes32",
          "name": "_animationHash",
          "type": "bytes32"
        },
        {
          "internalType": "string",
          "name": "_imageUrl",
          "type": "string"
        },
        {
          "internalType": "bytes32",
          "name": "_imageHash",
          "type": "bytes32"
        },
        {
          "internalType": "uint256",
          "name": "_editionSize",
          "type": "uint256"
        },
        {
          "internalType": "uint256",
          "name": "_royaltyBPS",
          "type": "uint256"
        },
        {
          "internalType": "uint256",
          "name": "_splitBPS",
          "type": "uint256"
        }
      ],
      "name": "createEdition",
      "outputs": [
        {
          "internalType": "uint256",
          "name": "",
          "type": "uint256"
        }
      ],
      "stateMutability": "nonpayable",
      "type": "function"
    },
    {
      "inputs": [
        {
          "internalType": "uint256",
          "name": "editionId",
          "type": "uint256"
        }
      ],
      "name": "getEditionAtId",
      "outputs": [
        {
          "internalType": "contract SingleEditionMintable",
          "name": "",
          "type": "address"
        }
      ],
      "stateMutability": "view",
      "type": "function"
    },
    {
      "inputs": [],
      "name": "implementation",
      "outputs": [
        {
          "internalType": "address",
          "name": "",
          "type": "address"
        }
      ],
      "stateMutability": "view",
      "type": "function"
    }
  ],
  "transactionHash": "0xd3249b5dfb7c8cc19e129221ae27642229258f60cc6e2e6b53aaaa50669e6d72",
  "args": [
    "0x1e6444BF4efc10e916c08410E33E5B753f0A1815"
  ],
  "solcInputHash": "4d907c61f9c5ab8ae511e186e22fbb8e",
  "bytecode": "0x608060405234801561001057600080fd5b506040516106fd3803806106fd83398101604081905261002f91610054565b600180546001600160a01b0319166001600160a01b0392909216919091179055610084565b60006020828403121561006657600080fd5b81516001600160a01b038116811461007d57600080fd5b9392505050565b61066a806100936000396000f3fe608060405234801561001057600080fd5b50600436106100415760003560e01c806324155f91146100465780635c60da1b1461006c578063ac52edfd14610097575b600080fd5b6100596100543660046103c4565b6100aa565b6040519081526020015b60405180910390f35b60015461007f906001600160a01b031681565b6040516001600160a01b039091168152602001610063565b61007f6100a53660046104e0565b6101de565b60015460009081906100f6906001600160a01b03166100c7835490565b6040516020016100d991815260200190565b6040516020818303038152906040526100f1906105f7565b61027d565b9050806001600160a01b031663f6dfa30b338f8f8f8f8f8f8f8f8f8f8f6040518d63ffffffff1660e01b815260040161013a9c9b9a99989796959493929190610546565b600060405180830381600087803b15801561015457600080fd5b505af1158015610168573d6000803e3d6000fd5b50505050600061017760005490565b604080518881526001600160a01b0385166020820152919250339183917f152014b245a12a32e125b8a4227ff155636ca7ca6ba15d04c5d07966e55c5cc7910160405180910390a36101cd600080546001019055565b9d9c50505050505050505050505050565b6001546040805160208101849052600092610277926001600160a01b039091169101604051602081830303815290604052610218906105f7565b30604051733d602d80600a3d3981f3363d3d373d3d3d363d7360601b8152606093841b60148201526f5af43d82803e903d91602b57fd5bf3ff60801b6028820152921b6038830152604c8201526037808220606c830152605591012090565b92915050565b6000604051733d602d80600a3d3981f3363d3d373d3d3d363d7360601b81528360601b60148201526e5af43d82803e903d91602b57fd5bf360881b6028820152826037826000f59150506001600160a01b0381166102775760405162461bcd60e51b8152602060048201526017602482015276115490cc4c4d8dce8818dc99585d194c8819985a5b1959604a1b604482015260640160405180910390fd5b80356001600160a01b038116811461033257600080fd5b919050565b600082601f83011261034857600080fd5b813567ffffffffffffffff808211156103635761036361061e565b604051601f8301601f19908116603f0116810190828211818310171561038b5761038b61061e565b816040528381528660208588010111156103a457600080fd5b836020870160208301376000602085830101528094505050505092915050565b60008060008060008060008060008060006101608c8e0312156103e657600080fd5b6103ef8c61031b565b9a5067ffffffffffffffff8060208e0135111561040b57600080fd5b61041b8e60208f01358f01610337565b9a508060408e0135111561042e57600080fd5b61043e8e60408f01358f01610337565b99508060608e0135111561045157600080fd5b6104618e60608f01358f01610337565b98508060808e0135111561047457600080fd5b6104848e60808f01358f01610337565b975060a08d013596508060c08e0135111561049e57600080fd5b506104af8d60c08e01358e01610337565b945060e08c013593506101008c013592506101208c013591506101408c013590509295989b509295989b9093969950565b6000602082840312156104f257600080fd5b5035919050565b6000815180845260005b8181101561051f57602081850181015186830182015201610503565b81811115610531576000602083870101525b50601f01601f19169290920160200192915050565b6001600160a01b038d811682528c16602082015260006101808060408401526105718184018e6104f9565b90508281036060840152610585818d6104f9565b90508281036080840152610599818c6104f9565b905082810360a08401526105ad818b6104f9565b90508860c084015282810360e08401526105c781896104f9565b915050856101008301528461012083015283610140830152826101608301529d9c50505050505050505050505050565b80516020808301519190811015610618576000198160200360031b1b821691505b50919050565b634e487b7160e01b600052604160045260246000fdfea264697066735822122036c2cec44ec69dfd5da1baccea715875d950a14fbed23b8dea64ba608e8c29f364736f6c63430008060033",
  "devdoc": {
    "events": {
      "CreatedEdition(uint256,address,uint256,address)": {
        "params": {
          "editionId": "ID of newly created edition"
        }
      }
    },
    "kind": "dev",
    "methods": {
      "constructor": {
        "params": {
          "_implementation": "SingleEditionMintable logic implementation contract to clone"
        }
      },
      "createEdition(address,string,string,string,string,bytes32,string,bytes32,uint256,uint256,uint256)": {
        "params": {
          "_animationHash": "Metadata: SHA-256 Hash of the animation (if no animation url, can be 0x0)",
          "_animationUrl": "Metadata: Animation url (optional) of the edition entry",
          "_artist": "User that created the edition",
          "_description": "Metadata: Description of the edition entry",
          "_editionSize": "Total size of the edition (number of possible editions)",
          "_imageHash": "Metadata: SHA-256 hash of the Image of the edition entry (if not image, can be 0x0)",
          "_imageUrl": "Metadata: Image url (semi-required) of the edition entry",
          "_name": "Name of the edition contract",
          "_royaltyBPS": "BPS amount of royalty",
          "_symbol": "Symbol of the edition contract"
        }
      },
      "getEditionAtId(uint256)": {
        "params": {
          "editionId": "id of edition to get contract for"
        },
        "returns": {
          "_0": "SingleEditionMintable Edition NFT contract"
        }
      }
    },
    "version": 1
  },
  "userdoc": {
    "events": {
      "CreatedEdition(uint256,address,uint256,address)": {
        "notice": "Emitted when a edition is created reserving the corresponding token IDs."
      }
    },
    "kind": "user",
    "methods": {
      "constructor": {
        "notice": "Initializes factory with address of implementation logic"
      },
      "createEdition(address,string,string,string,string,bytes32,string,bytes32,uint256,uint256,uint256)": {
        "notice": "Creates a new edition contract as a factory with a deterministic address Important: None of these fields (except the Url fields with the same hash) can be changed after calling"
      },
      "getEditionAtId(uint256)": {
        "notice": "Get edition given the created ID"
      },
      "implementation()": {
        "notice": "Address for implementation of SingleEditionMintable to clone"
      }
    },
    "version": 1
  },
  "storageLayout": {
    "storage": [
      {
        "astId": 3797,
        "contract": "contracts/SingleEditionMintableCreator.sol:SingleEditionMintableCreator",
        "label": "_atContract",
        "offset": 0,
        "slot": "0",
        "type": "t_struct(Counter)1639_storage"
      },
      {
        "astId": 3800,
        "contract": "contracts/SingleEditionMintableCreator.sol:SingleEditionMintableCreator",
        "label": "implementation",
        "offset": 0,
        "slot": "1",
        "type": "t_address"
      }
    ],
    "types": {
      "t_address": {
        "encoding": "inplace",
        "label": "address",
        "numberOfBytes": "20"
      },
      "t_struct(Counter)1639_storage": {
        "encoding": "inplace",
        "label": "struct CountersUpgradeable.Counter",
        "members": [
          {
            "astId": 1638,
            "contract": "contracts/SingleEditionMintableCreator.sol:SingleEditionMintableCreator",
            "label": "_value",
            "offset": 0,
            "slot": "0",
            "type": "t_uint256"
          }
        ],
        "numberOfBytes": "32"
      },
      "t_uint256": {
        "encoding": "inplace",
        "label": "uint256",
        "numberOfBytes": "32"
      }
    }
  }
}