{
  "address": "0x1e6444BF4efc10e916c08410E33E5B753f0A1815",
  "abi": [
    {
      "inputs": [
        {
          "internalType": "contract SharedNFTLogic",
          "name": "sharedNFTLogic",
          "type": "address"
        }
      ],
      "stateMutability": "nonpayable",
      "type": "constructor"
    },
    {
      "anonymous": false,
      "inputs": [
        {
          "indexed": true,
          "internalType": "address",
          "name": "owner",
          "type": "address"
        },
        {
          "indexed": true,
          "internalType": "address",
          "name": "approved",
          "type": "address"
        },
        {
          "indexed": true,
          "internalType": "uint256",
          "name": "tokenId",
          "type": "uint256"
        }
      ],
      "name": "Approval",
      "type": "event"
    },
    {
      "anonymous": false,
      "inputs": [
        {
          "indexed": true,
          "internalType": "address",
          "name": "owner",
          "type": "address"
        },
        {
          "indexed": true,
          "internalType": "address",
          "name": "operator",
          "type": "address"
        },
        {
          "indexed": false,
          "internalType": "bool",
          "name": "approved",
          "type": "bool"
        }
      ],
      "name": "ApprovalForAll",
      "type": "event"
    },
    {
      "anonymous": false,
      "inputs": [
        {
          "indexed": false,
          "internalType": "uint256",
          "name": "tokenId",
          "type": "uint256"
        }
      ],
      "name": "DeliveryAccepted",
      "type": "event"
    },
    {
      "anonymous": false,
      "inputs": [
        {
          "indexed": false,
          "internalType": "uint256",
          "name": "price",
          "type": "uint256"
        },
        {
          "indexed": false,
          "internalType": "address",
          "name": "owner",
          "type": "address"
        }
      ],
      "name": "EditionSold",
      "type": "event"
    },
    {
      "anonymous": false,
      "inputs": [
        {
          "indexed": false,
          "internalType": "uint256",
          "name": "tokenId",
          "type": "uint256"
        }
      ],
      "name": "OfferAccepted",
      "type": "event"
    },
    {
      "anonymous": false,
      "inputs": [
        {
          "indexed": false,
          "internalType": "uint256",
          "name": "tokenId",
          "type": "uint256"
        }
      ],
      "name": "OfferRejected",
      "type": "event"
    },
    {
      "anonymous": false,
      "inputs": [
        {
          "indexed": false,
          "internalType": "uint256",
          "name": "tokenId",
          "type": "uint256"
        }
      ],
      "name": "OfferTermsSet",
      "type": "event"
    },
    {
      "anonymous": false,
      "inputs": [
        {
          "indexed": true,
          "internalType": "address",
          "name": "previousOwner",
          "type": "address"
        },
        {
          "indexed": true,
          "internalType": "address",
          "name": "newOwner",
          "type": "address"
        }
      ],
      "name": "OwnershipTransferred",
      "type": "event"
    },
    {
      "anonymous": false,
      "inputs": [
        {
          "indexed": false,
          "internalType": "uint256",
          "name": "amount",
          "type": "uint256"
        }
      ],
      "name": "PriceChanged",
      "type": "event"
    },
    {
      "anonymous": false,
      "inputs": [
        {
          "indexed": false,
          "internalType": "uint256",
          "name": "tokenId",
          "type": "uint256"
        }
      ],
      "name": "ProductionComplete",
      "type": "event"
    },
    {
      "anonymous": false,
      "inputs": [
        {
          "indexed": false,
          "internalType": "uint256",
          "name": "tokenId",
          "type": "uint256"
        },
        {
          "indexed": false,
          "internalType": "address",
          "name": "owner",
          "type": "address"
        }
      ],
      "name": "RedeemStarted",
      "type": "event"
    },
    {
      "anonymous": false,
      "inputs": [
        {
          "indexed": true,
          "internalType": "address",
          "name": "from",
          "type": "address"
        },
        {
          "indexed": true,
          "internalType": "address",
          "name": "to",
          "type": "address"
        },
        {
          "indexed": true,
          "internalType": "uint256",
          "name": "tokenId",
          "type": "uint256"
        }
      ],
      "name": "Transfer",
      "type": "event"
    },
    {
      "anonymous": false,
      "inputs": [
        {
          "indexed": false,
          "internalType": "enum SingleEditionMintable.WhoCanMint",
          "name": "minters",
          "type": "uint8"
        }
      ],
      "name": "WhoCanMintChanged",
      "type": "event"
    },
    {
      "inputs": [
        {
          "internalType": "uint256",
          "name": "tokenId",
          "type": "uint256"
        }
      ],
      "name": "acceptDelivery",
      "outputs": [],
      "stateMutability": "nonpayable",
      "type": "function"
    },
    {
      "inputs": [
        {
          "internalType": "uint256",
          "name": "tokenId",
          "type": "uint256"
        }
      ],
      "name": "acceptOfferTerms",
      "outputs": [],
      "stateMutability": "payable",
      "type": "function"
    },
    {
      "inputs": [
        {
          "internalType": "address",
          "name": "to",
          "type": "address"
        },
        {
          "internalType": "uint256",
          "name": "tokenId",
          "type": "uint256"
        }
      ],
      "name": "approve",
      "outputs": [],
      "stateMutability": "nonpayable",
      "type": "function"
    },
    {
      "inputs": [
        {
          "internalType": "address",
          "name": "owner",
          "type": "address"
        }
      ],
      "name": "balanceOf",
      "outputs": [
        {
          "internalType": "uint256",
          "name": "",
          "type": "uint256"
        }
      ],
      "stateMutability": "view",
      "type": "function"
    },
    {
      "inputs": [
        {
          "internalType": "uint256",
          "name": "tokenId",
          "type": "uint256"
        }
      ],
      "name": "burn",
      "outputs": [],
      "stateMutability": "nonpayable",
      "type": "function"
    },
    {
      "inputs": [],
      "name": "description",
      "outputs": [
        {
          "internalType": "string",
          "name": "",
          "type": "string"
        }
      ],
      "stateMutability": "view",
      "type": "function"
    },
    {
      "inputs": [],
      "name": "editionSize",
      "outputs": [
        {
          "internalType": "uint256",
          "name": "",
          "type": "uint256"
        }
      ],
      "stateMutability": "view",
      "type": "function"
    },
    {
      "inputs": [
        {
          "internalType": "uint256",
          "name": "tokenId",
          "type": "uint256"
        }
      ],
      "name": "getApproved",
      "outputs": [
        {
          "internalType": "address",
          "name": "",
          "type": "address"
        }
      ],
      "stateMutability": "view",
      "type": "function"
    },
    {
      "inputs": [
        {
          "internalType": "uint256",
          "name": "tokenId",
          "type": "uint256"
        }
      ],
      "name": "getConditionReport",
      "outputs": [
        {
          "internalType": "string",
          "name": "",
          "type": "string"
        },
        {
          "internalType": "bytes32",
          "name": "",
          "type": "bytes32"
        }
      ],
      "stateMutability": "view",
      "type": "function"
    },
    {
      "inputs": [],
      "name": "getURIs",
      "outputs": [
        {
          "internalType": "string",
          "name": "",
          "type": "string"
        },
        {
          "internalType": "bytes32",
          "name": "",
          "type": "bytes32"
        },
        {
          "internalType": "string",
          "name": "",
          "type": "string"
        },
        {
          "internalType": "bytes32",
          "name": "",
          "type": "bytes32"
        }
      ],
      "stateMutability": "view",
      "type": "function"
    },
    {
      "inputs": [
        {
          "internalType": "address",
          "name": "_owner",
          "type": "address"
        },
        {
          "internalType": "address",
          "name": "artist",
          "type": "address"
        },
        {
          "internalType": "string",
          "name": "_name",
          "type": "string"
        },
        {
          "internalType": "string",
          "name": "_symbol",
          "type": "string"
        },
        {
          "internalType": "string",
          "name": "_description",
          "type": "string"
        },
        {
          "internalType": "string",
          "name": "animationUrl",
          "type": "string"
        },
        {
          "internalType": "bytes32",
          "name": "animationHash",
          "type": "bytes32"
        },
        {
          "internalType": "string",
          "name": "imageUrl",
          "type": "string"
        },
        {
          "internalType": "bytes32",
          "name": "imageHash",
          "type": "bytes32"
        },
        {
          "internalType": "uint256",
          "name": "_editionSize",
          "type": "uint256"
        },
        {
          "internalType": "uint256",
          "name": "royaltyBPS",
          "type": "uint256"
        },
        {
          "internalType": "uint256",
          "name": "splitBPS",
          "type": "uint256"
        }
      ],
      "name": "initialize",
      "outputs": [],
      "stateMutability": "nonpayable",
      "type": "function"
    },
    {
      "inputs": [
        {
          "internalType": "address",
          "name": "owner",
          "type": "address"
        },
        {
          "internalType": "address",
          "name": "operator",
          "type": "address"
        }
      ],
      "name": "isApprovedForAll",
      "outputs": [
        {
          "internalType": "bool",
          "name": "",
          "type": "bool"
        }
      ],
      "stateMutability": "view",
      "type": "function"
    },
    {
      "inputs": [
        {
          "internalType": "address",
          "name": "to",
          "type": "address"
        }
      ],
      "name": "mintEdition",
      "outputs": [
        {
          "internalType": "uint256",
          "name": "",
          "type": "uint256"
        }
      ],
      "stateMutability": "nonpayable",
      "type": "function"
    },
    {
      "inputs": [
        {
          "internalType": "address[]",
          "name": "recipients",
          "type": "address[]"
        }
      ],
      "name": "mintEditions",
      "outputs": [
        {
          "internalType": "uint256",
          "name": "",
          "type": "uint256"
        }
      ],
      "stateMutability": "nonpayable",
      "type": "function"
    },
    {
      "inputs": [],
      "name": "name",
      "outputs": [
        {
          "internalType": "string",
          "name": "",
          "type": "string"
        }
      ],
      "stateMutability": "view",
      "type": "function"
    },
    {
      "inputs": [],
      "name": "numberCanMint",
      "outputs": [
        {
          "internalType": "uint256",
          "name": "",
          "type": "uint256"
        }
      ],
      "stateMutability": "view",
      "type": "function"
    },
    {
      "inputs": [],
      "name": "owner",
      "outputs": [
        {
          "internalType": "address",
          "name": "",
          "type": "address"
        }
      ],
      "stateMutability": "view",
      "type": "function"
    },
    {
      "inputs": [
        {
          "internalType": "uint256",
          "name": "tokenId",
          "type": "uint256"
        }
      ],
      "name": "ownerOf",
      "outputs": [
        {
          "internalType": "address",
          "name": "",
          "type": "address"
        }
      ],
      "stateMutability": "view",
      "type": "function"
    },
    {
      "inputs": [
        {
          "internalType": "uint256",
          "name": "tokenId",
          "type": "uint256"
        },
        {
          "internalType": "string",
          "name": "_description",
          "type": "string"
        },
        {
          "internalType": "string",
          "name": "animationUrl",
          "type": "string"
        },
        {
          "internalType": "bytes32",
          "name": "animationHash",
          "type": "bytes32"
        },
        {
          "internalType": "string",
          "name": "imageUrl",
          "type": "string"
        },
        {
          "internalType": "bytes32",
          "name": "imageHash",
          "type": "bytes32"
        },
        {
          "internalType": "string",
          "name": "conditionReportUrl",
          "type": "string"
        },
        {
          "internalType": "bytes32",
          "name": "conditionReportHash",
          "type": "bytes32"
        }
      ],
      "name": "productionComplete",
      "outputs": [],
      "stateMutability": "nonpayable",
      "type": "function"
    },
    {
      "inputs": [],
      "name": "purchase",
      "outputs": [
        {
          "internalType": "uint256",
          "name": "",
          "type": "uint256"
        }
      ],
      "stateMutability": "payable",
      "type": "function"
    },
    {
      "inputs": [
        {
          "internalType": "uint256",
          "name": "tokenId",
          "type": "uint256"
        }
      ],
      "name": "redeem",
      "outputs": [],
      "stateMutability": "nonpayable",
      "type": "function"
    },
    {
      "inputs": [
        {
          "internalType": "uint256",
          "name": "tokenId",
          "type": "uint256"
        }
      ],
      "name": "rejectOfferTerms",
      "outputs": [],
      "stateMutability": "nonpayable",
      "type": "function"
    },
    {
      "inputs": [],
      "name": "renounceOwnership",
      "outputs": [],
      "stateMutability": "nonpayable",
      "type": "function"
    },
    {
      "inputs": [
        {
          "internalType": "uint256",
          "name": "",
          "type": "uint256"
        },
        {
          "internalType": "uint256",
          "name": "_salePrice",
          "type": "uint256"
        }
      ],
      "name": "royaltyInfo",
      "outputs": [
        {
          "internalType": "address",
          "name": "receiver",
          "type": "address"
        },
        {
          "internalType": "uint256",
          "name": "royaltyAmount",
          "type": "uint256"
        }
      ],
      "stateMutability": "view",
      "type": "function"
    },
    {
      "inputs": [
        {
          "internalType": "address",
          "name": "from",
          "type": "address"
        },
        {
          "internalType": "address",
          "name": "to",
          "type": "address"
        },
        {
          "internalType": "uint256",
          "name": "tokenId",
          "type": "uint256"
        }
      ],
      "name": "safeTransferFrom",
      "outputs": [],
      "stateMutability": "nonpayable",
      "type": "function"
    },
    {
      "inputs": [
        {
          "internalType": "address",
          "name": "from",
          "type": "address"
        },
        {
          "internalType": "address",
          "name": "to",
          "type": "address"
        },
        {
          "internalType": "uint256",
          "name": "tokenId",
          "type": "uint256"
        },
        {
          "internalType": "bytes",
          "name": "_data",
          "type": "bytes"
        }
      ],
      "name": "safeTransferFrom",
      "outputs": [],
      "stateMutability": "nonpayable",
      "type": "function"
    },
    {
      "inputs": [],
      "name": "salePrice",
      "outputs": [
        {
          "internalType": "uint256",
          "name": "",
          "type": "uint256"
        }
      ],
      "stateMutability": "view",
      "type": "function"
    },
    {
      "inputs": [
        {
          "internalType": "enum SingleEditionMintable.WhoCanMint",
          "name": "minters",
          "type": "uint8"
        }
      ],
      "name": "setAllowedMinter",
      "outputs": [],
      "stateMutability": "nonpayable",
      "type": "function"
    },
    {
      "inputs": [
        {
          "internalType": "address",
          "name": "operator",
          "type": "address"
        },
        {
          "internalType": "bool",
          "name": "approved",
          "type": "bool"
        }
      ],
      "name": "setApprovalForAll",
      "outputs": [],
      "stateMutability": "nonpayable",
      "type": "function"
    },
    {
      "inputs": [
        {
          "internalType": "uint256",
          "name": "count",
          "type": "uint256"
        },
        {
          "internalType": "address[]",
          "name": "minter",
          "type": "address[]"
        },
        {
          "internalType": "bool[]",
          "name": "allowed",
          "type": "bool[]"
        }
      ],
      "name": "setApprovedMinters",
      "outputs": [],
      "stateMutability": "nonpayable",
      "type": "function"
    },
    {
      "inputs": [
        {
          "internalType": "uint256",
          "name": "count",
          "type": "uint256"
        },
        {
          "internalType": "address[]",
          "name": "minter",
          "type": "address[]"
        },
        {
          "internalType": "bool[]",
          "name": "allowed",
          "type": "bool[]"
        }
      ],
      "name": "setApprovedVIPMinters",
      "outputs": [],
      "stateMutability": "nonpayable",
      "type": "function"
    },
    {
      "inputs": [
        {
          "internalType": "uint256",
          "name": "_salePrice",
          "type": "uint256"
        }
      ],
      "name": "setMembersSalePrice",
      "outputs": [],
      "stateMutability": "nonpayable",
      "type": "function"
    },
    {
      "inputs": [
        {
          "internalType": "uint256",
          "name": "tokenId",
          "type": "uint256"
        },
        {
          "internalType": "uint256",
          "name": "fee",
          "type": "uint256"
        }
      ],
      "name": "setOfferTerms",
      "outputs": [],
      "stateMutability": "nonpayable",
      "type": "function"
    },
    {
      "inputs": [
        {
          "internalType": "uint256",
          "name": "_salePrice",
          "type": "uint256"
        }
      ],
      "name": "setSalePrice",
      "outputs": [],
      "stateMutability": "nonpayable",
      "type": "function"
    },
    {
      "inputs": [
        {
          "internalType": "uint256",
          "name": "vipSalePrice",
          "type": "uint256"
        },
        {
          "internalType": "uint256",
          "name": "membersSalePrice",
          "type": "uint256"
        },
        {
          "internalType": "uint256",
          "name": "generalSalePrice",
          "type": "uint256"
        }
      ],
      "name": "setSalePrices",
      "outputs": [],
      "stateMutability": "nonpayable",
      "type": "function"
    },
    {
      "inputs": [
        {
          "internalType": "uint256",
          "name": "_salePrice",
          "type": "uint256"
        }
      ],
      "name": "setVIPSalePrice",
      "outputs": [],
      "stateMutability": "nonpayable",
      "type": "function"
    },
    {
      "inputs": [
        {
          "internalType": "bytes4",
          "name": "interfaceId",
          "type": "bytes4"
        }
      ],
      "name": "supportsInterface",
      "outputs": [
        {
          "internalType": "bool",
          "name": "",
          "type": "bool"
        }
      ],
      "stateMutability": "view",
      "type": "function"
    },
    {
      "inputs": [],
      "name": "symbol",
      "outputs": [
        {
          "internalType": "string",
          "name": "",
          "type": "string"
        }
      ],
      "stateMutability": "view",
      "type": "function"
    },
    {
      "inputs": [
        {
          "internalType": "uint256",
          "name": "tokenId",
          "type": "uint256"
        }
      ],
      "name": "tokenURI",
      "outputs": [
        {
          "internalType": "string",
          "name": "",
          "type": "string"
        }
      ],
      "stateMutability": "view",
      "type": "function"
    },
    {
      "inputs": [],
      "name": "totalSupply",
      "outputs": [
        {
          "internalType": "uint256",
          "name": "",
          "type": "uint256"
        }
      ],
      "stateMutability": "view",
      "type": "function"
    },
    {
      "inputs": [
        {
          "internalType": "address",
          "name": "from",
          "type": "address"
        },
        {
          "internalType": "address",
          "name": "to",
          "type": "address"
        },
        {
          "internalType": "uint256",
          "name": "tokenId",
          "type": "uint256"
        }
      ],
      "name": "transferFrom",
      "outputs": [],
      "stateMutability": "nonpayable",
      "type": "function"
    },
    {
      "inputs": [
        {
          "internalType": "address",
          "name": "newOwner",
          "type": "address"
        }
      ],
      "name": "transferOwnership",
      "outputs": [],
      "stateMutability": "nonpayable",
      "type": "function"
    },
    {
      "inputs": [
        {
          "internalType": "string",
          "name": "imageUrl",
          "type": "string"
        },
        {
          "internalType": "string",
          "name": "animationUrl",
          "type": "string"
        }
      ],
      "name": "updateEditionURLs",
      "outputs": [],
      "stateMutability": "nonpayable",
      "type": "function"
    },
    {
      "inputs": [],
      "name": "withdraw",
      "outputs": [],
      "stateMutability": "nonpayable",
      "type": "function"
    }
  ],
  "transactionHash": "0xa9fa1bc8d55ad04690c03e065b39695062d443b55a009959ceec72be6695a1cb",
  "args": [
    "0x86b7d020C96676D3134931a69bC7df0675f45B1c"
  ],
  "solcInputHash": "4d907c61f9c5ab8ae511e186e22fbb8e",
  "bytecode": "0x60a06040523480156200001157600080fd5b50604051620039c8380380620039c8833981016040819052620000349162000054565b60601b6001600160601b03191660805260d4805460ff1916905562000086565b6000602082840312156200006757600080fd5b81516001600160a01b03811681146200007f57600080fd5b9392505050565b60805160601c613923620000a5600039600061196b01526139236000f3fe6080604052600436106102675760003560e01c8063715018a611610144578063c87b56dd116100b6578063ee5df5501161007a578063ee5df5501461071d578063f2fde38b1461073d578063f4ed0f461461075d578063f51f96dd14610773578063f6dfa30b14610789578063fc51e0c3146107a957600080fd5b8063c87b56dd1461067d578063db006a751461069d578063de5d62a0146106bd578063e444bfcc146106dd578063e985e9c5146106fd57600080fd5b80637d0eeace116101085780637d0eeace146105e05780638da5cb5b146105f357806395d89b4114610608578063a22cb4651461061d578063a66ff0af1461063d578063b88d4fde1461065d57600080fd5b8063715018a6146105565780637284e4161461056b578063787e5efc14610580578063799b7c5f146105a05780637b422c4c146105c057600080fd5b8063367de39e116101dd57806342842e0e116101a157806342842e0e146104ae57806342966c68146104ce57806352c9143e146104ee5780636352211e1461050e57806364edfbf01461052e57806370a082311461053657600080fd5b8063367de39e1461041957806336f3ec76146104395780633892aa521461045957806339dc13bc146104795780633ccfd60b1461049957600080fd5b80630f6a93491161022f5780630f6a93491461034057806318160ddd146103605780631919fed71461037557806323b872dd1461039557806328c5440f146103b55780632a55205a146103da57600080fd5b806301ffc9a71461026c57806306fdde03146102a1578063081812fc146102c3578063095ea7b3146102fb5780630b65b6e71461031d575b600080fd5b34801561027857600080fd5b5061028c61028736600461302b565b6107d7565b60405190151581526020015b60405180910390f35b3480156102ad57600080fd5b506102b6610802565b6040516102989190613443565b3480156102cf57600080fd5b506102e36102de36600461315f565b610894565b6040516001600160a01b039091168152602001610298565b34801561030757600080fd5b5061031b610316366004612f33565b610921565b005b34801561032957600080fd5b50610332610a32565b604051908152602001610298565b34801561034c57600080fd5b5061033261035b366004612f5d565b610a66565b34801561036c57600080fd5b50610332610a95565b34801561038157600080fd5b5061031b61039036600461315f565b610aa2565b3480156103a157600080fd5b5061031b6103b0366004612e52565b610b68565b3480156103c157600080fd5b506103ca610b9a565b6040516102989493929190613478565b3480156103e657600080fd5b506103fa6103f53660046132c4565b610cd2565b604080516001600160a01b039093168352602083019190915201610298565b34801561042557600080fd5b5061031b610434366004613065565b610d2f565b34801561044557600080fd5b5061031b6104543660046132e6565b610e31565b34801561046557600080fd5b5061031b610474366004613178565b610ea7565b34801561048557600080fd5b5061031b61049436600461315f565b610f75565b3480156104a557600080fd5b5061031b611058565b3480156104ba57600080fd5b5061031b6104c9366004612e52565b6110de565b3480156104da57600080fd5b5061031b6104e936600461315f565b6110f9565b3480156104fa57600080fd5b5061031b6105093660046131f1565b61112a565b34801561051a57600080fd5b506102e361052936600461315f565b6112b8565b61033261132f565b34801561054257600080fd5b50610332610551366004612cbf565b611431565b34801561056257600080fd5b5061031b6114b8565b34801561057757600080fd5b506102b66114f3565b34801561058c57600080fd5b5061031b61059b36600461315f565b611581565b3480156105ac57600080fd5b5061031b6105bb366004613178565b6115c8565b3480156105cc57600080fd5b5061031b6105db36600461315f565b61168e565b61031b6105ee36600461315f565b61173f565b3480156105ff57600080fd5b506102e361184c565b34801561061457600080fd5b506102b6611860565b34801561062957600080fd5b5061031b610638366004612f09565b61186f565b34801561064957600080fd5b50610332610658366004612cbf565b61187e565b34801561066957600080fd5b5061031b610678366004612e8e565b61190a565b34801561068957600080fd5b506102b661069836600461315f565b611942565b3480156106a957600080fd5b5061031b6106b836600461315f565b611a1f565b3480156106c957600080fd5b5061031b6106d836600461315f565b611b0b565b3480156106e957600080fd5b5061031b6106f83660046130fc565b611b53565b34801561070957600080fd5b5061028c610718366004612cda565b611ba9565b34801561072957600080fd5b5061031b6107383660046132c4565b611bd7565b34801561074957600080fd5b5061031b610758366004612cbf565b611cea565b34801561076957600080fd5b5061033260d05481565b34801561077f57600080fd5b5061033260d95481565b34801561079557600080fd5b5061031b6107a4366004612d0d565b611d87565b3480156107b557600080fd5b506107c96107c436600461315f565b611ee0565b604051610298929190613456565b600063152a902d60e11b6001600160e01b0319831614806107fc57506107fc82611f93565b92915050565b60606065805461081190613809565b80601f016020809104026020016040519081016040528092919081815260200182805461083d90613809565b801561088a5780601f1061085f5761010080835404028352916020019161088a565b820191906000526020600020905b81548152906001019060200180831161086d57829003601f168201915b5050505050905090565b600061089f82611fe3565b6109055760405162461bcd60e51b815260206004820152602c60248201527f4552433732313a20617070726f76656420717565727920666f72206e6f6e657860448201526b34b9ba32b73a103a37b5b2b760a11b60648201526084015b60405180910390fd5b506000908152606960205260409020546001600160a01b031690565b600061092c826112b8565b9050806001600160a01b0316836001600160a01b0316141561099a5760405162461bcd60e51b815260206004820152602160248201527f4552433732313a20617070726f76616c20746f2063757272656e74206f776e656044820152603960f91b60648201526084016108fc565b336001600160a01b03821614806109b657506109b68133611ba9565b610a235760405162461bcd60e51b815260206004820152603860248201527f4552433732313a20617070726f76652063616c6c6572206973206e6f74206f776044820152771b995c881b9bdc88185c1c1c9bdd995908199bdc88185b1b60421b60648201526084016108fc565b610a2d8383612000565b505050565b600060d05460001415610a46575060001990565b60d15460d054610a5790600161376d565b610a6191906137c6565b905090565b6000610a7061206e565b610a8c5760405162461bcd60e51b81526004016108fc90613643565b6107fc82612173565b60006001610a5760d15490565b33610aab61184c565b6001600160a01b031614610ad15760405162461bcd60e51b81526004016108fc906135e9565b60d981905560d480546003919060ff19166001835b021790555060d4546040517f40cb75607c032a2aac1c3565feb3b70e354cbd56e8f8fa36773cba5750464c5191610b229160ff9091169061341b565b60405180910390a17fa6dc15bdb68da224c66db4b3838d9a2b205138e8cff6774e57d0af91e196d62260d954604051610b5d91815260200190565b60405180910390a150565b610b73335b8261229a565b610b8f5760405162461bcd60e51b81526004016108fc9061367a565b610a2d83838361235c565b606060006060600060cd60ce5460cb60cc54838054610bb890613809565b80601f0160208091040260200160405190810160405280929190818152602001828054610be490613809565b8015610c315780601f10610c0657610100808354040283529160200191610c31565b820191906000526020600020905b815481529060010190602001808311610c1457829003601f168201915b50505050509350818054610c4490613809565b80601f0160208091040260200160405190810160405280929190818152602001828054610c7090613809565b8015610cbd5780601f10610c9257610100808354040283529160200191610cbd565b820191906000526020600020905b815481529060010190602001808311610ca057829003601f168201915b50505050509150935093509350935090919293565b60008080610cde61184c565b6001600160a01b03161415610d0057610cf561184c565b600091509150610d28565b610d0861184c565b60d55461271090610d1990866137a7565b610d239190613785565b915091505b9250929050565b33610d3861184c565b6001600160a01b031614610d5e5760405162461bcd60e51b81526004016108fc906135e9565b6000816003811115610d7257610d72613875565b10158015610d9257506003816003811115610d8f57610d8f613875565b11155b610dde5760405162461bcd60e51b815260206004820152601f60248201527f4e6565647320746f20626520612076616c6964206d696e74657220747970650060448201526064016108fc565b60d4805482919060ff19166001836003811115610dfd57610dfd613875565b02179055507f40cb75607c032a2aac1c3565feb3b70e354cbd56e8f8fa36773cba5750464c5181604051610b5d919061341b565b33610e3a61184c565b6001600160a01b031614610e605760405162461bcd60e51b81526004016108fc906135e9565b60d783905560d882905560d98190556040518181527fa6dc15bdb68da224c66db4b3838d9a2b205138e8cff6774e57d0af91e196d6229060200160405180910390a1505050565b33610eb061184c565b6001600160a01b031614610ed65760405162461bcd60e51b81526004016108fc906135e9565b60005b85811015610f6d57828282818110610ef357610ef361388b565b9050602002016020810190610f089190613010565b60d36000878785818110610f1e57610f1e61388b565b9050602002016020810190610f339190612cbf565b6001600160a01b031681526020810191909152604001600020805460ff191691151591909117905580610f6581613844565b915050610ed9565b505050505050565b610f7e81611fe3565b610f9a5760405162461bcd60e51b81526004016108fc906135a1565b610fa333610b6d565b610fbf5760405162461bcd60e51b81526004016108fc906135c3565b6003600082815260cf6020526040902060069081015460ff1690811115610fe857610fe8613875565b146110055760405162461bcd60e51b81526004016108fc9061356a565b600081815260cf6020526040902060060180546001919060ff191682805b02179055506040518181527facb9cd98d41dc8854281172ab2a764d949b62b51776edd911f85376ed2eca64b90602001610b5d565b3361106161184c565b6001600160a01b0316146110875760405162461bcd60e51b81526004016108fc906135e9565b60d65447906000906127109061109d90846137a7565b6110a79190613785565b905060006110b582846137c6565b90506110c86110c261184c565b836124e6565b60ca54610a2d906001600160a01b0316826124e6565b610a2d8383836040518060200160405280600081525061190a565b61110233610b6d565b61111e5760405162461bcd60e51b81526004016108fc906135c3565b611127816125ff565b50565b3361113361184c565b6001600160a01b0316146111595760405162461bcd60e51b81526004016108fc906135e9565b61116288611fe3565b61117e5760405162461bcd60e51b81526004016108fc906135a1565b6004600089815260cf6020526040902060069081015460ff16908111156111a7576111a7613875565b146111c45760405162461bcd60e51b81526004016108fc9061356a565b86516111d79060c99060208a0190612b58565b50600088815260cf6020908152604090912087516111f792890190612b58565b50600088815260cf6020908152604090912060018101879055855161122492600290920191870190612b58565b50600088815260cf6020908152604090912060038101859055835161125192600490920191850190612b58565b50600088815260cf6020526040902060058082018390556006909101805460ff191660018302179055506040518881527fadb6d4f651f6fbf8b37026019ee48fdb86abf9ec94eb4a5f0acf72ad8c7872a39060200160405180910390a15050505050505050565b6000818152606760205260408120546001600160a01b0316806107fc5760405162461bcd60e51b815260206004820152602960248201527f4552433732313a206f776e657220717565727920666f72206e6f6e657869737460448201526832b73a103a37b5b2b760b91b60648201526084016108fc565b60008061133a612688565b90506000811161137b5760405162461bcd60e51b815260206004820152600c60248201526b4e6f7420666f722073616c6560a01b60448201526064016108fc565b80341461139a5760405162461bcd60e51b81526004016108fc9061361e565b6040805160018082528183019092526000916020808301908036833701905050905033816000815181106113d0576113d061388b565b6001600160a01b039092166020928302919091018201526040805184815233928101929092527f60a6c75698fadb72223808131f9f9bb9db3afa32122db6d94fb8fc985a504baa910160405180910390a161142a81612173565b9250505090565b60006001600160a01b03821661149c5760405162461bcd60e51b815260206004820152602a60248201527f4552433732313a2062616c616e636520717565727920666f7220746865207a65604482015269726f206164647265737360b01b60648201526084016108fc565b506001600160a01b031660009081526068602052604090205490565b336114c161184c565b6001600160a01b0316146114e75760405162461bcd60e51b81526004016108fc906135e9565b6114f160006126fc565b565b60c9805461150090613809565b80601f016020809104026020016040519081016040528092919081815260200182805461152c90613809565b80156115795780601f1061154e57610100808354040283529160200191611579565b820191906000526020600020905b81548152906001019060200180831161155c57829003601f168201915b505050505081565b3361158a61184c565b6001600160a01b0316146115b05760405162461bcd60e51b81526004016108fc906135e9565b60d781905560d480546001919060ff19168280610ae6565b336115d161184c565b6001600160a01b0316146115f75760405162461bcd60e51b81526004016108fc906135e9565b60005b85811015610f6d578282828181106116145761161461388b565b90506020020160208101906116299190613010565b60d2600087878581811061163f5761163f61388b565b90506020020160208101906116549190612cbf565b6001600160a01b031681526020810191909152604001600020805460ff19169115159190911790558061168681613844565b9150506115fa565b61169781611fe3565b6116b35760405162461bcd60e51b81526004016108fc906135a1565b6116bc33610b6d565b6116d85760405162461bcd60e51b81526004016108fc906135c3565b6005600082815260cf6020526040902060069081015460ff169081111561170157611701613875565b1461171e5760405162461bcd60e51b81526004016108fc9061356a565b600081815260cf602052604090206006908101805460ff1916600183611023565b61174881611fe3565b6117645760405162461bcd60e51b81526004016108fc906135a1565b61176d33610b6d565b6117895760405162461bcd60e51b81526004016108fc906135c3565b6003600082815260cf6020526040902060069081015460ff16908111156117b2576117b2613875565b146117cf5760405162461bcd60e51b81526004016108fc9061356a565b600081815260cf602052604090206007015434146117ff5760405162461bcd60e51b81526004016108fc9061361e565b600081815260cf6020908152604091829020600601805460ff1916600417905590518281527f9bd6b4fd288008520fd788a93304e5688a401aea817ea8140ecf1fb8648f31919101610b5d565b6000610a616097546001600160a01b031690565b60606066805461081190613809565b61187a33838361274e565b5050565b600061188861206e565b6118a45760405162461bcd60e51b81526004016108fc90613643565b6040805160018082528183019092526000916020808301908036833701905050905082816000815181106118da576118da61388b565b60200260200101906001600160a01b031690816001600160a01b03168152505061190381612173565b9392505050565b611914338361229a565b6119305760405162461bcd60e51b81526004016108fc9061367a565b61193c84848484612819565b50505050565b606061194d82611fe3565b6119695760405162461bcd60e51b81526004016108fc906135a1565b7f00000000000000000000000000000000000000000000000000000000000000006001600160a01b031663df30dba06119a0610802565b60c960cd60cb8760d0546040518763ffffffff1660e01b81526004016119cb969594939291906134b5565b60006040518083038186803b1580156119e357600080fd5b505afa1580156119f7573d6000803e3d6000fd5b505050506040513d6000823e601f3d908101601f191682016040526107fc9190810190613086565b611a2881611fe3565b611a445760405162461bcd60e51b81526004016108fc906135a1565b611a4d33610b6d565b611a695760405162461bcd60e51b81526004016108fc906135c3565b6001600082815260cf6020526040902060069081015460ff1690811115611a9257611a92613875565b14611aaf5760405162461bcd60e51b81526004016108fc9061356a565b600081815260cf60205260409020600601805460ff191660021790557fc290e40808ef06721539ad0d926f8d5f53d2dd6d5e28334308a012676f8674168133604080519283526001600160a01b03909116602083015201610b5d565b33611b1461184c565b6001600160a01b031614611b3a5760405162461bcd60e51b81526004016108fc906135e9565b60d881905560d480546002919060ff1916600183610ae6565b33611b5c61184c565b6001600160a01b031614611b825760405162461bcd60e51b81526004016108fc906135e9565b8151611b959060cd906020850190612b58565b508051610a2d9060cb906020840190612b58565b6001600160a01b039182166000908152606a6020908152604080832093909416825291909152205460ff1690565b33611be061184c565b6001600160a01b031614611c065760405162461bcd60e51b81526004016108fc906135e9565b611c0f82611fe3565b611c2b5760405162461bcd60e51b81526004016108fc906135a1565b6002600083815260cf6020526040902060069081015460ff1690811115611c5457611c54613875565b14611c8f5760405162461bcd60e51b815260206004820152600b60248201526a57726f6e6720737461746560a81b60448201526064016108fc565b600082815260cf602090815260409182902060068101805460ff1916600317905560070183905590518381527f316b408b8cf323e8f20ef7a8c267eedc89bef19ca5db7fc30be938e55bf068f9910160405180910390a15050565b33611cf361184c565b6001600160a01b031614611d195760405162461bcd60e51b81526004016108fc906135e9565b6001600160a01b038116611d7e5760405162461bcd60e51b815260206004820152602660248201527f4f776e61626c653a206e6577206f776e657220697320746865207a65726f206160448201526564647265737360d01b60648201526084016108fc565b611127816126fc565b600054610100900460ff16611da25760005460ff1615611da6565b303b155b611e095760405162461bcd60e51b815260206004820152602e60248201527f496e697469616c697a61626c653a20636f6e747261637420697320616c72656160448201526d191e481a5b9a5d1a585b1a5e995960921b60648201526084016108fc565b600054610100900460ff16158015611e2b576000805461ffff19166101011790555b611e358b8b61284c565b611e3d61287d565b611e468d611cea565b8851611e599060c99060208c0190612b58565b508751611e6d9060cb9060208b0190612b58565b5060cc8790558551611e869060cd906020890190612b58565b5060ce85905560ca80546001600160a01b0319166001600160a01b038e1617905560d084905560d583905560d682905560d1805460010190558015611ed1576000805461ff00191690555b50505050505050505050505050565b600081815260cf6020526040812060058101546004909101805460609392908290611f0a90613809565b80601f0160208091040260200160405190810160405280929190818152602001828054611f3690613809565b8015611f835780601f10611f5857610100808354040283529160200191611f83565b820191906000526020600020905b815481529060010190602001808311611f6657829003601f168201915b5050505050915091509150915091565b60006001600160e01b031982166380ac58cd60e01b1480611fc457506001600160e01b03198216635b5e139f60e01b145b806107fc57506301ffc9a760e01b6001600160e01b03198316146107fc565b6000908152606760205260409020546001600160a01b0316151590565b600081815260696020526040902080546001600160a01b0319166001600160a01b0384169081179091558190612035826112b8565b6001600160a01b03167f8c5be1e5ebec7d5bd14f71427d1e84f3dd0314c0f7b2291e5b200ac8c7c3b92560405160405180910390a45050565b6000600360d45460ff16600381111561208957612089613875565b14156120955750600190565b600260d45460ff1660038111156120ae576120ae613875565b14156120d25733600090815260d2602052604090205460ff16156120d25750600190565b600160d45460ff1660038111156120eb576120eb613875565b148061210d5750600260d45460ff16600381111561210b5761210b613875565b145b156121305733600090815260d3602052604090205460ff16156121305750600190565b600060d45460ff16600381111561214957612149613875565b141561216d573361215861184c565b6001600160a01b0316141561216d5750600190565b50600090565b60008061217f60d15490565b905060006001845183612192919061376d565b61219c91906137c6565b905060d054600014806121b1575060d0548111155b6121e85760405162461bcd60e51b815260206004820152600860248201526714dbdb19081bdd5d60c21b60448201526064016108fc565b806121f260d15490565b1161228e57612235848361220560d15490565b61220f91906137c6565b8151811061221f5761221f61388b565b602002602001015161223060d15490565b6128ac565b600160cf600061224460d15490565b815260200190815260200160002060060160006101000a81548160ff0219169083600681111561227657612276613875565b021790555061228960d180546001019055565b6121e8565b60d1545b949350505050565b60006122a582611fe3565b6123065760405162461bcd60e51b815260206004820152602c60248201527f4552433732313a206f70657261746f7220717565727920666f72206e6f6e657860448201526b34b9ba32b73a103a37b5b2b760a11b60648201526084016108fc565b6000612311836112b8565b9050806001600160a01b0316846001600160a01b0316148061234c5750836001600160a01b031661234184610894565b6001600160a01b0316145b8061229257506122928185611ba9565b826001600160a01b031661236f826112b8565b6001600160a01b0316146123d35760405162461bcd60e51b815260206004820152602560248201527f4552433732313a207472616e736665722066726f6d20696e636f72726563742060448201526437bbb732b960d91b60648201526084016108fc565b6001600160a01b0382166124355760405162461bcd60e51b8152602060048201526024808201527f4552433732313a207472616e7366657220746f20746865207a65726f206164646044820152637265737360e01b60648201526084016108fc565b612440600082612000565b6001600160a01b03831660009081526068602052604081208054600192906124699084906137c6565b90915550506001600160a01b038216600090815260686020526040812080546001929061249790849061376d565b909155505060008181526067602052604080822080546001600160a01b0319166001600160a01b0386811691821790925591518493918716916000805160206138ce83398151915291a4505050565b804710156125365760405162461bcd60e51b815260206004820152601d60248201527f416464726573733a20696e73756666696369656e742062616c616e636500000060448201526064016108fc565b6000826001600160a01b03168260405160006040518083038185875af1925050503d8060008114612583576040519150601f19603f3d011682016040523d82523d6000602084013e612588565b606091505b5050905080610a2d5760405162461bcd60e51b815260206004820152603a60248201527f416464726573733a20756e61626c6520746f2073656e642076616c75652c207260448201527f6563697069656e74206d6179206861766520726576657274656400000000000060648201526084016108fc565b600061260a826112b8565b9050612617600083612000565b6001600160a01b03811660009081526068602052604081208054600192906126409084906137c6565b909155505060008281526067602052604080822080546001600160a01b0319169055518391906001600160a01b038416906000805160206138ce833981519152908390a45050565b6000600160d45460ff1660038111156126a3576126a3613875565b14156126b0575060d75490565b600260d45460ff1660038111156126c9576126c9613875565b14156126d6575060d85490565b600360d45460ff1660038111156126ef576126ef613875565b141561216d575060d95490565b609780546001600160a01b038381166001600160a01b0319831681179093556040519116919082907f8be0079c531659141344cd1fd0a4f28419497f9722a3daafe3b4186f6b6457e090600090a35050565b816001600160a01b0316836001600160a01b031614156127ac5760405162461bcd60e51b815260206004820152601960248201527822a9219b99189d1030b8383937bb32903a379031b0b63632b960391b60448201526064016108fc565b6001600160a01b038381166000818152606a6020908152604080832094871680845294825291829020805460ff191686151590811790915591519182527f17307eab39ab6107e8899845ad3d59bd9653f200f220920489ca2b5937696c31910160405180910390a3505050565b61282484848461235c565b612830848484846129cd565b61193c5760405162461bcd60e51b81526004016108fc90613518565b600054610100900460ff166128735760405162461bcd60e51b81526004016108fc906136cb565b61187a8282612ada565b600054610100900460ff166128a45760405162461bcd60e51b81526004016108fc906136cb565b6114f1612b28565b6001600160a01b0382166129025760405162461bcd60e51b815260206004820181905260248201527f4552433732313a206d696e7420746f20746865207a65726f206164647265737360448201526064016108fc565b61290b81611fe3565b156129585760405162461bcd60e51b815260206004820152601c60248201527f4552433732313a20746f6b656e20616c7265616479206d696e7465640000000060448201526064016108fc565b6001600160a01b038216600090815260686020526040812080546001929061298190849061376d565b909155505060008181526067602052604080822080546001600160a01b0319166001600160a01b03861690811790915590518392906000805160206138ce833981519152908290a45050565b60006001600160a01b0384163b15612acf57604051630a85bd0160e11b81526001600160a01b0385169063150b7a0290612a119033908990889088906004016133de565b602060405180830381600087803b158015612a2b57600080fd5b505af1925050508015612a5b575060408051601f3d908101601f19168201909252612a5891810190613048565b60015b612ab5573d808015612a89576040519150601f19603f3d011682016040523d82523d6000602084013e612a8e565b606091505b508051612aad5760405162461bcd60e51b81526004016108fc90613518565b805181602001fd5b6001600160e01b031916630a85bd0160e11b149050612292565b506001949350505050565b600054610100900460ff16612b015760405162461bcd60e51b81526004016108fc906136cb565b8151612b14906065906020850190612b58565b508051610a2d906066906020840190612b58565b600054610100900460ff16612b4f5760405162461bcd60e51b81526004016108fc906136cb565b6114f1336126fc565b828054612b6490613809565b90600052602060002090601f016020900481019282612b865760008555612bcc565b82601f10612b9f57805160ff1916838001178555612bcc565b82800160010185558215612bcc579182015b82811115612bcc578251825591602001919060010190612bb1565b50612bd8929150612bdc565b5090565b5b80821115612bd85760008155600101612bdd565b6000612c04612bff84613746565b613716565b9050828152838383011115612c1857600080fd5b828260208301376000602084830101529392505050565b80356001600160a01b0381168114612c4657600080fd5b919050565b60008083601f840112612c5d57600080fd5b5081356001600160401b03811115612c7457600080fd5b6020830191508360208260051b8501011115610d2857600080fd5b80358015158114612c4657600080fd5b600082601f830112612cb057600080fd5b61190383833560208501612bf1565b600060208284031215612cd157600080fd5b61190382612c2f565b60008060408385031215612ced57600080fd5b612cf683612c2f565b9150612d0460208401612c2f565b90509250929050565b6000806000806000806000806000806000806101808d8f031215612d3057600080fd5b612d398d612c2f565b9b50612d4760208e01612c2f565b9a506001600160401b0360408e01351115612d6157600080fd5b612d718e60408f01358f01612c9f565b99506001600160401b0360608e01351115612d8b57600080fd5b612d9b8e60608f01358f01612c9f565b98506001600160401b0360808e01351115612db557600080fd5b612dc58e60808f01358f01612c9f565b97506001600160401b0360a08e01351115612ddf57600080fd5b612def8e60a08f01358f01612c9f565b965060c08d013595506001600160401b0360e08e01351115612e1057600080fd5b612e208e60e08f01358f01612c9f565b94506101008d013593506101208d013592506101408d013591506101608d013590509295989b509295989b509295989b565b600080600060608486031215612e6757600080fd5b612e7084612c2f565b9250612e7e60208501612c2f565b9150604084013590509250925092565b60008060008060808587031215612ea457600080fd5b612ead85612c2f565b9350612ebb60208601612c2f565b92506040850135915060608501356001600160401b03811115612edd57600080fd5b8501601f81018713612eee57600080fd5b612efd87823560208401612bf1565b91505092959194509250565b60008060408385031215612f1c57600080fd5b612f2583612c2f565b9150612d0460208401612c8f565b60008060408385031215612f4657600080fd5b612f4f83612c2f565b946020939093013593505050565b60006020808385031215612f7057600080fd5b82356001600160401b0380821115612f8757600080fd5b818501915085601f830112612f9b57600080fd5b813581811115612fad57612fad6138a1565b8060051b9150612fbe848301613716565b8181528481019084860184860187018a1015612fd957600080fd5b600095505b8386101561300357612fef81612c2f565b835260019590950194918601918601612fde565b5098975050505050505050565b60006020828403121561302257600080fd5b61190382612c8f565b60006020828403121561303d57600080fd5b8135611903816138b7565b60006020828403121561305a57600080fd5b8151611903816138b7565b60006020828403121561307757600080fd5b81356004811061190357600080fd5b60006020828403121561309857600080fd5b81516001600160401b038111156130ae57600080fd5b8201601f810184136130bf57600080fd5b80516130cd612bff82613746565b8181528560208385010111156130e257600080fd5b6130f38260208301602086016137dd565b95945050505050565b6000806040838503121561310f57600080fd5b82356001600160401b038082111561312657600080fd5b61313286838701612c9f565b9350602085013591508082111561314857600080fd5b5061315585828601612c9f565b9150509250929050565b60006020828403121561317157600080fd5b5035919050565b60008060008060006060868803121561319057600080fd5b8535945060208601356001600160401b03808211156131ae57600080fd5b6131ba89838a01612c4b565b909650945060408801359150808211156131d357600080fd5b506131e088828901612c4b565b969995985093965092949392505050565b600080600080600080600080610100898b03121561320e57600080fd5b8835975060208901356001600160401b038082111561322c57600080fd5b6132388c838d01612c9f565b985060408b013591508082111561324e57600080fd5b61325a8c838d01612c9f565b975060608b0135965060808b013591508082111561327757600080fd5b6132838c838d01612c9f565b955060a08b0135945060c08b01359150808211156132a057600080fd5b506132ad8b828c01612c9f565b92505060e089013590509295985092959890939650565b600080604083850312156132d757600080fd5b50508035926020909101359150565b6000806000606084860312156132fb57600080fd5b505081359360208301359350604090920135919050565b6000815180845261332a8160208601602086016137dd565b601f01601f19169290920160200192915050565b8054600090600181811c908083168061335857607f831692505b602080841082141561337a57634e487b7160e01b600052602260045260246000fd5b8388526020880182801561339557600181146133a6576133d1565b60ff198716825282820197506133d1565b60008981526020902060005b878110156133cb578154848201529086019084016133b2565b83019850505b5050505050505092915050565b6001600160a01b038581168252841660208201526040810183905260806060820181905260009061341190830184613312565b9695505050505050565b602081016004831061343d57634e487b7160e01b600052602160045260246000fd5b91905290565b6020815260006119036020830184613312565b6040815260006134696040830185613312565b90508260208301529392505050565b60808152600061348b6080830187613312565b85602084015282810360408401526134a38186613312565b91505082606083015295945050505050565b60c0815260006134c860c0830189613312565b82810360208401526134da818961333e565b905082810360408401526134ee818861333e565b90508281036060840152613502818761333e565b6080840195909552505060a00152949350505050565b60208082526032908201527f4552433732313a207472616e7366657220746f206e6f6e20455243373231526560408201527131b2b4bb32b91034b6b83632b6b2b73a32b960711b606082015260800190565b6020808252601c908201527f596f752063757272656e746c792063616e206e6f742072656465656d00000000604082015260600190565b6020808252600890820152672737903a37b5b2b760c11b604082015260600190565b6020808252600c908201526b139bdd08185c1c1c9bdd995960a21b604082015260600190565b6020808252818101527f4f776e61626c653a2063616c6c6572206973206e6f7420746865206f776e6572604082015260600190565b6020808252600b908201526a57726f6e6720707269636560a81b604082015260600190565b6020808252601d908201527f4e6565647320746f20626520616e20616c6c6f776564206d696e746572000000604082015260600190565b60208082526031908201527f4552433732313a207472616e736665722063616c6c6572206973206e6f74206f6040820152701ddb995c881b9bdc88185c1c1c9bdd9959607a1b606082015260800190565b6020808252602b908201527f496e697469616c697a61626c653a20636f6e7472616374206973206e6f74206960408201526a6e697469616c697a696e6760a81b606082015260800190565b604051601f8201601f191681016001600160401b038111828210171561373e5761373e6138a1565b604052919050565b60006001600160401b0382111561375f5761375f6138a1565b50601f01601f191660200190565b600082198211156137805761378061385f565b500190565b6000826137a257634e487b7160e01b600052601260045260246000fd5b500490565b60008160001904831182151516156137c1576137c161385f565b500290565b6000828210156137d8576137d861385f565b500390565b60005b838110156137f85781810151838201526020016137e0565b8381111561193c5750506000910152565b600181811c9082168061381d57607f821691505b6020821081141561383e57634e487b7160e01b600052602260045260246000fd5b50919050565b60006000198214156138585761385861385f565b5060010190565b634e487b7160e01b600052601160045260246000fd5b634e487b7160e01b600052602160045260246000fd5b634e487b7160e01b600052603260045260246000fd5b634e487b7160e01b600052604160045260246000fd5b6001600160e01b03198116811461112757600080fdfeddf252ad1be2c89b69c2b068fc378daa952ba7f163c4a11628f55a4df523b3efa2646970667358221220b3f88a32fcaa04c9b51a1bfa13a8e70134d4a43a5b576507ac8530823320170164736f6c63430008060033",
  "devdoc": {
    "author": "iain nash Repository: https://github.com/ourzora/nft-editions",
    "details": "This allows creators to mint a unique serial edition of the same media within a custom contract",
    "kind": "dev",
    "methods": {
      "approve(address,uint256)": {
        "details": "See {IERC721-approve}."
      },
      "balanceOf(address)": {
        "details": "See {IERC721-balanceOf}."
      },
      "burn(uint256)": {
        "params": {
          "tokenId": "Token ID to burn User burn function for token id "
        }
      },
      "getApproved(uint256)": {
        "details": "See {IERC721-getApproved}."
      },
      "getConditionReport(uint256)": {
        "details": "Get URIs for the condition report",
        "returns": {
          "_0": "_imageUrl, _imageHash"
        }
      },
      "getURIs()": {
        "details": "Get URIs for edition NFT",
        "returns": {
          "_0": "_imageUrl, _imageHash, _animationUrl, _animationHash"
        }
      },
      "initialize(address,address,string,string,string,string,bytes32,string,bytes32,uint256,uint256,uint256)": {
        "details": "Function to create a new edition. Can only be called by the allowed creator Sets the only allowed minter to the address that creates/owns the edition. This can be re-assigned or updated later",
        "params": {
          "_description": "Description of edition, used in the description field of the NFT",
          "_editionSize": "Number of editions that can be minted in total. If 0, unlimited editions can be minted.",
          "_name": "Name of edition, used in the title as \"$NAME NUMBER/TOTAL\"",
          "_owner": "User that owns and can mint the edition, gets royalty and sales payouts and can update the base url if needed.",
          "_symbol": "Symbol of the new token contract",
          "animationHash": "The associated hash of the animation in sha-256 bytes32 format. If animation is omitted the hash can be zero.",
          "animationUrl": "Animation URL of the edition. Not required, but if omitted image URL needs to be included. This follows the opensea spec for NFTs",
          "artist": "User that created the edition",
          "imageHash": "SHA256 of the given image in bytes32 format (0xHASH). If no image is included, the hash can be zero.",
          "imageUrl": "Image URL of the edition. Strongly encouraged to be used, if necessary, only animation URL can be used. One of animation and image url need to exist in a edition to render the NFT.",
          "royaltyBPS": "BPS of the royalty set on the contract. Can be 0 for no royalty.",
          "splitBPS": "BPS of the royalty set on the contract. Can be 0 for no royalty.        "
        }
      },
      "isApprovedForAll(address,address)": {
        "details": "See {IERC721-isApprovedForAll}."
      },
      "mintEdition(address)": {
        "details": "This mints one edition to the given address by an allowed minter on the edition instance.",
        "params": {
          "to": "address to send the newly minted edition to"
        }
      },
      "mintEditions(address[])": {
        "details": "This mints multiple editions to the given list of addresses.",
        "params": {
          "recipients": "list of addresses to send the newly minted editions to"
        }
      },
      "name()": {
        "details": "See {IERC721Metadata-name}."
      },
      "ownerOf(uint256)": {
        "details": "See {IERC721-ownerOf}."
      },
      "purchase()": {
        "details": "This allows the user to purchase an edition at the given price in the contract."
      },
      "renounceOwnership()": {
        "details": "Leaves the contract without owner. It will not be possible to call `onlyOwner` functions anymore. Can only be called by the current owner. NOTE: Renouncing ownership will leave the contract without an owner, thereby removing any functionality that is only available to the owner."
      },
      "royaltyInfo(uint256,uint256)": {
        "details": "Get royalty information for token",
        "params": {
          "_salePrice": "Sale price for the token"
        }
      },
      "safeTransferFrom(address,address,uint256)": {
        "details": "See {IERC721-safeTransferFrom}."
      },
      "safeTransferFrom(address,address,uint256,bytes)": {
        "details": "See {IERC721-safeTransferFrom}."
      },
      "setAllowedMinter(uint8)": {
        "details": "Sets the types of users who is allowed to mint.",
        "params": {
          "minters": "WhoCanMint enum of minter types"
        }
      },
      "setApprovalForAll(address,bool)": {
        "details": "See {IERC721-setApprovalForAll}."
      },
      "setApprovedMinters(uint256,address[],bool[])": {
        "details": "Sets the approved minting status of the given address. This requires that msg.sender is the owner of the given edition id. If the ZeroAddress (address(0x0)) is set as a minter, anyone will be allowed to mint. This setup is similar to setApprovalForAll in the ERC721 spec.",
        "params": {
          "allowed": "boolean if that address is allowed to mint",
          "minter": "address to set approved minting status for"
        }
      },
      "setApprovedVIPMinters(uint256,address[],bool[])": {
        "details": "Sets the approved minting status of the given address. This requires that msg.sender is the owner of the given edition id. If the ZeroAddress (address(0x0)) is set as a minter, anyone will be allowed to mint. This setup is similar to setApprovalForAll in the ERC721 spec.",
        "params": {
          "allowed": "boolean if that address is allowed to mint",
          "minter": "address to set approved minting status for"
        }
      },
      "setMembersSalePrice(uint256)": {
        "details": "This sets the members ETH sales price Setting a sales price allows users to mint the edition until it sells out. For more granular sales, use an external sales contract.",
        "params": {
          "_salePrice": "if sale price is 0 sale is stopped, otherwise that amount  of ETH is needed to start the sale."
        }
      },
      "setSalePrice(uint256)": {
        "details": "This sets a simple ETH sales price Setting a sales price allows users to mint the edition until it sells out. For more granular sales, use an external sales contract.",
        "params": {
          "_salePrice": "if sale price is 0 sale is stopped, otherwise that amount  of ETH is needed to start the sale."
        }
      },
      "setSalePrices(uint256,uint256,uint256)": {
        "details": "This sets the members ETH sales price Setting a sales price allows users to mint the edition until it sells out. For more granular sales, use an external sales contract.",
        "params": {
          "generalSalePrice": "if sale price is 0 sale is stopped, otherwise that amount  of ETH is needed to start the sale.                                              ",
          "membersSalePrice": "if sale price is 0 sale is stopped, otherwise that amount  of ETH is needed to start the sale.",
          "vipSalePrice": "if sale price is 0 sale is stopped, otherwise that amount  of ETH is needed to start the sale."
        }
      },
      "setVIPSalePrice(uint256)": {
        "details": "This sets the VIP ETH sales price Setting a sales price allows users to mint the edition until it sells out. For more granular sales, use an external sales contract.",
        "params": {
          "_salePrice": "if sale price is 0 sale is stopped, otherwise that amount  of ETH is needed to start the sale."
        }
      },
      "symbol()": {
        "details": "See {IERC721Metadata-symbol}."
      },
      "tokenURI(uint256)": {
        "details": "Get URI for given token id",
        "params": {
          "tokenId": "token id to get uri for"
        },
        "returns": {
          "_0": "base64-encoded json metadata object"
        }
      },
      "totalSupply()": {
        "details": "returns the number of minted tokens within the edition"
      },
      "transferFrom(address,address,uint256)": {
        "details": "See {IERC721-transferFrom}."
      },
      "transferOwnership(address)": {
        "details": "Transfers ownership of the contract to a new account (`newOwner`). Can only be called by the current owner."
      },
      "updateEditionURLs(string,string)": {
        "details": "Allows for updates of edition urls by the owner of the edition. Only URLs can be updated (data-uris are supported), hashes cannot be updated."
      },
      "withdraw()": {
        "details": "This withdraws ETH from the contract to the contract owner."
      }
    },
    "version": 1
  },
  "userdoc": {
    "kind": "user",
    "methods": {
      "numberCanMint()": {
        "notice": "Returns the number of editions allowed to mint (max_uint256 when open edition)"
      },
      "owner()": {
        "notice": "Simple override for owner interface."
      }
    },
    "notice": "This is a smart contract for handling dynamic contract minting.",
    "version": 1
  },
  "storageLayout": {
    "storage": [
      {
        "astId": 229,
        "contract": "contracts/SingleEditionMintable.sol:SingleEditionMintable",
        "label": "_initialized",
        "offset": 0,
        "slot": "0",
        "type": "t_bool"
      },
      {
        "astId": 232,
        "contract": "contracts/SingleEditionMintable.sol:SingleEditionMintable",
        "label": "_initializing",
        "offset": 1,
        "slot": "0",
        "type": "t_bool"
      },
      {
        "astId": 1632,
        "contract": "contracts/SingleEditionMintable.sol:SingleEditionMintable",
        "label": "__gap",
        "offset": 0,
        "slot": "1",
        "type": "t_array(t_uint256)50_storage"
      },
      {
        "astId": 1953,
        "contract": "contracts/SingleEditionMintable.sol:SingleEditionMintable",
        "label": "__gap",
        "offset": 0,
        "slot": "51",
        "type": "t_array(t_uint256)50_storage"
      },
      {
        "astId": 325,
        "contract": "contracts/SingleEditionMintable.sol:SingleEditionMintable",
        "label": "_name",
        "offset": 0,
        "slot": "101",
        "type": "t_string_storage"
      },
      {
        "astId": 327,
        "contract": "contracts/SingleEditionMintable.sol:SingleEditionMintable",
        "label": "_symbol",
        "offset": 0,
        "slot": "102",
        "type": "t_string_storage"
      },
      {
        "astId": 331,
        "contract": "contracts/SingleEditionMintable.sol:SingleEditionMintable",
        "label": "_owners",
        "offset": 0,
        "slot": "103",
        "type": "t_mapping(t_uint256,t_address)"
      },
      {
        "astId": 335,
        "contract": "contracts/SingleEditionMintable.sol:SingleEditionMintable",
        "label": "_balances",
        "offset": 0,
        "slot": "104",
        "type": "t_mapping(t_address,t_uint256)"
      },
      {
        "astId": 339,
        "contract": "contracts/SingleEditionMintable.sol:SingleEditionMintable",
        "label": "_tokenApprovals",
        "offset": 0,
        "slot": "105",
        "type": "t_mapping(t_uint256,t_address)"
      },
      {
        "astId": 345,
        "contract": "contracts/SingleEditionMintable.sol:SingleEditionMintable",
        "label": "_operatorApprovals",
        "offset": 0,
        "slot": "106",
        "type": "t_mapping(t_address,t_mapping(t_address,t_bool))"
      },
      {
        "astId": 1186,
        "contract": "contracts/SingleEditionMintable.sol:SingleEditionMintable",
        "label": "__gap",
        "offset": 0,
        "slot": "107",
        "type": "t_array(t_uint256)44_storage"
      },
      {
        "astId": 10,
        "contract": "contracts/SingleEditionMintable.sol:SingleEditionMintable",
        "label": "_owner",
        "offset": 0,
        "slot": "151",
        "type": "t_address"
      },
      {
        "astId": 122,
        "contract": "contracts/SingleEditionMintable.sol:SingleEditionMintable",
        "label": "__gap",
        "offset": 0,
        "slot": "152",
        "type": "t_array(t_uint256)49_storage"
      },
      {
        "astId": 2506,
        "contract": "contracts/SingleEditionMintable.sol:SingleEditionMintable",
        "label": "description",
        "offset": 0,
        "slot": "201",
        "type": "t_string_storage"
      },
      {
        "astId": 2508,
        "contract": "contracts/SingleEditionMintable.sol:SingleEditionMintable",
        "label": "_artist",
        "offset": 0,
        "slot": "202",
        "type": "t_address"
      },
      {
        "astId": 2510,
        "contract": "contracts/SingleEditionMintable.sol:SingleEditionMintable",
        "label": "_animationUrl",
        "offset": 0,
        "slot": "203",
        "type": "t_string_storage"
      },
      {
        "astId": 2512,
        "contract": "contracts/SingleEditionMintable.sol:SingleEditionMintable",
        "label": "_animationHash",
        "offset": 0,
        "slot": "204",
        "type": "t_bytes32"
      },
      {
        "astId": 2514,
        "contract": "contracts/SingleEditionMintable.sol:SingleEditionMintable",
        "label": "_imageUrl",
        "offset": 0,
        "slot": "205",
        "type": "t_string_storage"
      },
      {
        "astId": 2516,
        "contract": "contracts/SingleEditionMintable.sol:SingleEditionMintable",
        "label": "_imageHash",
        "offset": 0,
        "slot": "206",
        "type": "t_bytes32"
      },
      {
        "astId": 2521,
        "contract": "contracts/SingleEditionMintable.sol:SingleEditionMintable",
        "label": "_perTokenMetadata",
        "offset": 0,
        "slot": "207",
        "type": "t_mapping(t_uint256,t_struct(PerToken)2495_storage)"
      },
      {
        "astId": 2523,
        "contract": "contracts/SingleEditionMintable.sol:SingleEditionMintable",
        "label": "editionSize",
        "offset": 0,
        "slot": "208",
        "type": "t_uint256"
      },
      {
        "astId": 2526,
        "contract": "contracts/SingleEditionMintable.sol:SingleEditionMintable",
        "label": "_atEditionId",
        "offset": 0,
        "slot": "209",
        "type": "t_struct(Counter)1639_storage"
      },
      {
        "astId": 2530,
        "contract": "contracts/SingleEditionMintable.sol:SingleEditionMintable",
        "label": "_allowedMinters",
        "offset": 0,
        "slot": "210",
        "type": "t_mapping(t_address,t_bool)"
      },
      {
        "astId": 2534,
        "contract": "contracts/SingleEditionMintable.sol:SingleEditionMintable",
        "label": "_vipAllowedMinters",
        "offset": 0,
        "slot": "211",
        "type": "t_mapping(t_address,t_bool)"
      },
      {
        "astId": 2537,
        "contract": "contracts/SingleEditionMintable.sol:SingleEditionMintable",
        "label": "_whoCanMint",
        "offset": 0,
        "slot": "212",
        "type": "t_enum(WhoCanMint)2424"
      },
      {
        "astId": 2540,
        "contract": "contracts/SingleEditionMintable.sol:SingleEditionMintable",
        "label": "_pricing",
        "offset": 0,
        "slot": "213",
        "type": "t_struct(Pricing)2504_storage"
      },
      {
        "astId": 2542,
        "contract": "contracts/SingleEditionMintable.sol:SingleEditionMintable",
        "label": "salePrice",
        "offset": 0,
        "slot": "217",
        "type": "t_uint256"
      }
    ],
    "types": {
      "t_address": {
        "encoding": "inplace",
        "label": "address",
        "numberOfBytes": "20"
      },
      "t_array(t_uint256)44_storage": {
        "base": "t_uint256",
        "encoding": "inplace",
        "label": "uint256[44]",
        "numberOfBytes": "1408"
      },
      "t_array(t_uint256)49_storage": {
        "base": "t_uint256",
        "encoding": "inplace",
        "label": "uint256[49]",
        "numberOfBytes": "1568"
      },
      "t_array(t_uint256)50_storage": {
        "base": "t_uint256",
        "encoding": "inplace",
        "label": "uint256[50]",
        "numberOfBytes": "1600"
      },
      "t_bool": {
        "encoding": "inplace",
        "label": "bool",
        "numberOfBytes": "1"
      },
      "t_bytes32": {
        "encoding": "inplace",
        "label": "bytes32",
        "numberOfBytes": "32"
      },
      "t_enum(ExpandedNFTStates)2432": {
        "encoding": "inplace",
        "label": "enum SingleEditionMintable.ExpandedNFTStates",
        "numberOfBytes": "1"
      },
      "t_enum(WhoCanMint)2424": {
        "encoding": "inplace",
        "label": "enum SingleEditionMintable.WhoCanMint",
        "numberOfBytes": "1"
      },
      "t_mapping(t_address,t_bool)": {
        "encoding": "mapping",
        "key": "t_address",
        "label": "mapping(address => bool)",
        "numberOfBytes": "32",
        "value": "t_bool"
      },
      "t_mapping(t_address,t_mapping(t_address,t_bool))": {
        "encoding": "mapping",
        "key": "t_address",
        "label": "mapping(address => mapping(address => bool))",
        "numberOfBytes": "32",
        "value": "t_mapping(t_address,t_bool)"
      },
      "t_mapping(t_address,t_uint256)": {
        "encoding": "mapping",
        "key": "t_address",
        "label": "mapping(address => uint256)",
        "numberOfBytes": "32",
        "value": "t_uint256"
      },
      "t_mapping(t_uint256,t_address)": {
        "encoding": "mapping",
        "key": "t_uint256",
        "label": "mapping(uint256 => address)",
        "numberOfBytes": "32",
        "value": "t_address"
      },
      "t_mapping(t_uint256,t_struct(PerToken)2495_storage)": {
        "encoding": "mapping",
        "key": "t_uint256",
        "label": "mapping(uint256 => struct SingleEditionMintable.PerToken)",
        "numberOfBytes": "32",
        "value": "t_struct(PerToken)2495_storage"
      },
      "t_string_storage": {
        "encoding": "bytes",
        "label": "string",
        "numberOfBytes": "32"
      },
      "t_struct(Counter)1639_storage": {
        "encoding": "inplace",
        "label": "struct CountersUpgradeable.Counter",
        "members": [
          {
            "astId": 1638,
            "contract": "contracts/SingleEditionMintable.sol:SingleEditionMintable",
            "label": "_value",
            "offset": 0,
            "slot": "0",
            "type": "t_uint256"
          }
        ],
        "numberOfBytes": "32"
      },
      "t_struct(PerToken)2495_storage": {
        "encoding": "inplace",
        "label": "struct SingleEditionMintable.PerToken",
        "members": [
          {
            "astId": 2479,
            "contract": "contracts/SingleEditionMintable.sol:SingleEditionMintable",
            "label": "redeemedAnimationUrl",
            "offset": 0,
            "slot": "0",
            "type": "t_string_storage"
          },
          {
            "astId": 2481,
            "contract": "contracts/SingleEditionMintable.sol:SingleEditionMintable",
            "label": "redeemedAnimationHash",
            "offset": 0,
            "slot": "1",
            "type": "t_bytes32"
          },
          {
            "astId": 2483,
            "contract": "contracts/SingleEditionMintable.sol:SingleEditionMintable",
            "label": "redeemedImageUrl",
            "offset": 0,
            "slot": "2",
            "type": "t_string_storage"
          },
          {
            "astId": 2485,
            "contract": "contracts/SingleEditionMintable.sol:SingleEditionMintable",
            "label": "redeemedImageHash",
            "offset": 0,
            "slot": "3",
            "type": "t_bytes32"
          },
          {
            "astId": 2487,
            "contract": "contracts/SingleEditionMintable.sol:SingleEditionMintable",
            "label": "conditionReportUrl",
            "offset": 0,
            "slot": "4",
            "type": "t_string_storage"
          },
          {
            "astId": 2489,
            "contract": "contracts/SingleEditionMintable.sol:SingleEditionMintable",
            "label": "conditionReportHash",
            "offset": 0,
            "slot": "5",
            "type": "t_bytes32"
          },
          {
            "astId": 2492,
            "contract": "contracts/SingleEditionMintable.sol:SingleEditionMintable",
            "label": "editionState",
            "offset": 0,
            "slot": "6",
            "type": "t_enum(ExpandedNFTStates)2432"
          },
          {
            "astId": 2494,
            "contract": "contracts/SingleEditionMintable.sol:SingleEditionMintable",
            "label": "editionFee",
            "offset": 0,
            "slot": "7",
            "type": "t_uint256"
          }
        ],
        "numberOfBytes": "256"
      },
      "t_struct(Pricing)2504_storage": {
        "encoding": "inplace",
        "label": "struct SingleEditionMintable.Pricing",
        "members": [
          {
            "astId": 2497,
            "contract": "contracts/SingleEditionMintable.sol:SingleEditionMintable",
            "label": "royaltyBPS",
            "offset": 0,
            "slot": "0",
            "type": "t_uint256"
          },
          {
            "astId": 2499,
            "contract": "contracts/SingleEditionMintable.sol:SingleEditionMintable",
            "label": "splitBPS",
            "offset": 0,
            "slot": "1",
            "type": "t_uint256"
          },
          {
            "astId": 2501,
            "contract": "contracts/SingleEditionMintable.sol:SingleEditionMintable",
            "label": "vipSalePrice",
            "offset": 0,
            "slot": "2",
            "type": "t_uint256"
          },
          {
            "astId": 2503,
            "contract": "contracts/SingleEditionMintable.sol:SingleEditionMintable",
            "label": "membersSalePrice",
            "offset": 0,
            "slot": "3",
            "type": "t_uint256"
          }
        ],
        "numberOfBytes": "128"
      },
      "t_uint256": {
        "encoding": "inplace",
        "label": "uint256",
        "numberOfBytes": "32"
      }
    }
  }
}